{
  "contractName": "KnoxHiveVault",
  "abi": [
    {
      "inputs": [
        {
          "internalType": "contract IERC20",
          "name": "token",
          "type": "address"
        }
      ],
      "stateMutability": "nonpayable",
      "type": "constructor"
    },
    {
      "anonymous": false,
      "inputs": [
        {
          "indexed": true,
          "internalType": "address",
          "name": "previousOwner",
          "type": "address"
        },
        {
          "indexed": true,
          "internalType": "address",
          "name": "newOwner",
          "type": "address"
        }
      ],
      "name": "OwnershipTransferred",
      "type": "event"
    },
    {
      "inputs": [],
      "name": "_token",
      "outputs": [
        {
          "internalType": "contract IERC20",
          "name": "",
          "type": "address"
        }
      ],
      "stateMutability": "view",
      "type": "function",
      "constant": true
    },
    {
      "inputs": [],
      "name": "owner",
      "outputs": [
        {
          "internalType": "address",
          "name": "",
          "type": "address"
        }
      ],
      "stateMutability": "view",
      "type": "function",
      "constant": true
    },
    {
      "inputs": [],
      "name": "renounceOwnership",
      "outputs": [],
      "stateMutability": "nonpayable",
      "type": "function"
    },
    {
      "inputs": [
        {
          "internalType": "address",
          "name": "newOwner",
          "type": "address"
        }
      ],
      "name": "transferOwnership",
      "outputs": [],
      "stateMutability": "nonpayable",
      "type": "function"
    },
    {
      "inputs": [
        {
          "internalType": "uint256",
          "name": "amount",
          "type": "uint256"
        },
        {
          "internalType": "address",
          "name": "beneficiary",
          "type": "address"
        }
      ],
      "name": "allocateMonthlyFunds",
      "outputs": [
        {
          "internalType": "bool",
          "name": "",
          "type": "bool"
        }
      ],
      "stateMutability": "nonpayable",
      "type": "function"
    },
    {
      "inputs": [
        {
          "internalType": "uint256",
          "name": "amount",
          "type": "uint256"
        }
      ],
      "name": "withdrawAllocatedFunds",
      "outputs": [
        {
          "internalType": "bool",
          "name": "",
          "type": "bool"
        }
      ],
      "stateMutability": "nonpayable",
      "type": "function"
    }
  ],
  "bytecode": "0x60806040526102586005553480156200001757600080fd5b50604051620012bf380380620012bf83398181016040528101906200003d91906200018f565b6200005d62000051620000ac60201b60201c565b620000b460201b60201c565b80600160006101000a81548173ffffffffffffffffffffffffffffffffffffffff021916908373ffffffffffffffffffffffffffffffffffffffff16021790555042600681905550506200021d565b600033905090565b60008060009054906101000a900473ffffffffffffffffffffffffffffffffffffffff169050816000806101000a81548173ffffffffffffffffffffffffffffffffffffffff021916908373ffffffffffffffffffffffffffffffffffffffff1602179055508173ffffffffffffffffffffffffffffffffffffffff168173ffffffffffffffffffffffffffffffffffffffff167f8be0079c531659141344cd1fd0a4f28419497f9722a3daafe3b4186f6b6457e060405160405180910390a35050565b600081519050620001898162000203565b92915050565b600060208284031215620001a257600080fd5b6000620001b28482850162000178565b91505092915050565b6000620001c882620001e3565b9050919050565b6000620001dc82620001bb565b9050919050565b600073ffffffffffffffffffffffffffffffffffffffff82169050919050565b6200020e81620001cf565b81146200021a57600080fd5b50565b611092806200022d6000396000f3fe608060405234801561001057600080fd5b50600436106100625760003560e01c8063715018a6146100675780638da5cb5b14610071578063a52d29051461008f578063e937cfc2146100bf578063ecd0c0c3146100ef578063f2fde38b1461010d575b600080fd5b61006f610129565b005b6100796101b1565b6040516100869190610ddd565b60405180910390f35b6100a960048036038101906100a49190610ac1565b6101da565b6040516100b69190610e21565b60405180910390f35b6100d960048036038101906100d49190610a98565b6103b1565b6040516100e69190610e21565b60405180910390f35b6100f761081d565b6040516101049190610e3c565b60405180910390f35b61012760048036038101906101229190610a46565b610843565b005b61013161093b565b73ffffffffffffffffffffffffffffffffffffffff1661014f6101b1565b73ffffffffffffffffffffffffffffffffffffffff16146101a5576040517f08c379a000000000000000000000000000000000000000000000000000000000815260040161019c90610ef7565b60405180910390fd5b6101af6000610943565b565b60008060009054906101000a900473ffffffffffffffffffffffffffffffffffffffff16905090565b60006101e461093b565b73ffffffffffffffffffffffffffffffffffffffff166102026101b1565b73ffffffffffffffffffffffffffffffffffffffff1614610258576040517f08c379a000000000000000000000000000000000000000000000000000000000815260040161024f90610ef7565b60405180910390fd5b6000831161029b576040517f08c379a000000000000000000000000000000000000000000000000000000000815260040161029290610e77565b60405180910390fd5b8173ffffffffffffffffffffffffffffffffffffffff16600073ffffffffffffffffffffffffffffffffffffffff16141561030b576040517f08c379a000000000000000000000000000000000000000000000000000000000815260040161030290610ed7565b60405180910390fd5b6001600260008473ffffffffffffffffffffffffffffffffffffffff1673ffffffffffffffffffffffffffffffffffffffff16815260200190815260200160002060006101000a81548160ff02191690831515021790555082600360008473ffffffffffffffffffffffffffffffffffffffff1673ffffffffffffffffffffffffffffffffffffffff168152602001908152602001600020819055506001905092915050565b6000600260006103bf61093b565b73ffffffffffffffffffffffffffffffffffffffff1673ffffffffffffffffffffffffffffffffffffffff16815260200190815260200160002060009054906101000a900460ff16610446576040517f08c379a000000000000000000000000000000000000000000000000000000000815260040161043d90610e97565b60405180910390fd5b816003600061045361093b565b73ffffffffffffffffffffffffffffffffffffffff1673ffffffffffffffffffffffffffffffffffffffff1681526020019081526020016000205410156104cf576040517f08c379a00000000000000000000000000000000000000000000000000000000081526004016104c690610eb7565b60405180910390fd5b6000600460006104dd61093b565b73ffffffffffffffffffffffffffffffffffffffff1673ffffffffffffffffffffffffffffffffffffffff1681526020019081526020016000205411156106bf576005546004600061052d61093b565b73ffffffffffffffffffffffffffffffffffffffff1673ffffffffffffffffffffffffffffffffffffffff16815260200190815260200160002054426105739190610f48565b10156105b4576040517f08c379a00000000000000000000000000000000000000000000000000000000081526004016105ab90610f17565b60405180910390fd5b600160009054906101000a900473ffffffffffffffffffffffffffffffffffffffff1673ffffffffffffffffffffffffffffffffffffffff1663a9059cbb6105fa61093b565b846040518363ffffffff1660e01b8152600401610618929190610df8565b602060405180830381600087803b15801561063257600080fd5b505af1158015610646573d6000803e3d6000fd5b505050506040513d601f19601f8201168201806040525081019061066a9190610a6f565b50426004600061067861093b565b73ffffffffffffffffffffffffffffffffffffffff1673ffffffffffffffffffffffffffffffffffffffff1681526020019081526020016000208190555060019050610818565b600554600654426106d09190610f48565b1015610711576040517f08c379a000000000000000000000000000000000000000000000000000000000815260040161070890610f17565b60405180910390fd5b600160009054906101000a900473ffffffffffffffffffffffffffffffffffffffff1673ffffffffffffffffffffffffffffffffffffffff1663a9059cbb61075761093b565b846040518363ffffffff1660e01b8152600401610775929190610df8565b602060405180830381600087803b15801561078f57600080fd5b505af11580156107a3573d6000803e3d6000fd5b505050506040513d601f19601f820116820180604052508101906107c79190610a6f565b5042600460006107d561093b565b73ffffffffffffffffffffffffffffffffffffffff1673ffffffffffffffffffffffffffffffffffffffff16815260200190815260200160002081905550600190505b919050565b600160009054906101000a900473ffffffffffffffffffffffffffffffffffffffff1681565b61084b61093b565b73ffffffffffffffffffffffffffffffffffffffff166108696101b1565b73ffffffffffffffffffffffffffffffffffffffff16146108bf576040517f08c379a00000000000000000000000000000000000000000000000000000000081526004016108b690610ef7565b60405180910390fd5b600073ffffffffffffffffffffffffffffffffffffffff168173ffffffffffffffffffffffffffffffffffffffff16141561092f576040517f08c379a000000000000000000000000000000000000000000000000000000000815260040161092690610e57565b60405180910390fd5b61093881610943565b50565b600033905090565b60008060009054906101000a900473ffffffffffffffffffffffffffffffffffffffff169050816000806101000a81548173ffffffffffffffffffffffffffffffffffffffff021916908373ffffffffffffffffffffffffffffffffffffffff1602179055508173ffffffffffffffffffffffffffffffffffffffff168173ffffffffffffffffffffffffffffffffffffffff167f8be0079c531659141344cd1fd0a4f28419497f9722a3daafe3b4186f6b6457e060405160405180910390a35050565b600081359050610a1681611017565b92915050565b600081519050610a2b8161102e565b92915050565b600081359050610a4081611045565b92915050565b600060208284031215610a5857600080fd5b6000610a6684828501610a07565b91505092915050565b600060208284031215610a8157600080fd5b6000610a8f84828501610a1c565b91505092915050565b600060208284031215610aaa57600080fd5b6000610ab884828501610a31565b91505092915050565b60008060408385031215610ad457600080fd5b6000610ae285828601610a31565b9250506020610af385828601610a07565b9150509250929050565b610b0681610f7c565b82525050565b610b1581610f8e565b82525050565b610b2481610fc4565b82525050565b6000610b37602683610f37565b91507f4f776e61626c653a206e6577206f776e657220697320746865207a65726f206160008301527f64647265737300000000000000000000000000000000000000000000000000006020830152604082019050919050565b6000610b9d603683610f37565b91507f4b6e6f78686976655661756c743a20416c6c6f77616e636520616d6f756e742060008301527f6d757374206265206d6f7265207468616e207a65726f000000000000000000006020830152604082019050919050565b6000610c03603783610f37565b91507f4b6e6f78686976655661756c743a20596f7520617265206e6f7420617574686f60008301527f726973656420746f2077697468647261772066756e64730000000000000000006020830152604082019050919050565b6000610c69603b83610f37565b91507f4b6e6f78686976655661756c743a2052657175657374656420616d6f756e742060008301527f6973206d6f7265207468656e20616c6c6f77656420616d6f756e7400000000006020830152604082019050919050565b6000610ccf603983610f37565b91507f4b6e6f78686976655661756c743a2042656e656669636961727920616464726560008301527f73732063616e6e6f74206265207a65726f2061646472657373000000000000006020830152604082019050919050565b6000610d35602083610f37565b91507f4f776e61626c653a2063616c6c6572206973206e6f7420746865206f776e65726000830152602082019050919050565b6000610d75603783610f37565b91507f4b6e6f78686976655661756c743a2046756e64732063616e6e6f74206265207260008301527f656c65617365642061742074686973206d6f6d656e742e0000000000000000006020830152604082019050919050565b610dd781610fba565b82525050565b6000602082019050610df26000830184610afd565b92915050565b6000604082019050610e0d6000830185610afd565b610e1a6020830184610dce565b9392505050565b6000602082019050610e366000830184610b0c565b92915050565b6000602082019050610e516000830184610b1b565b92915050565b60006020820190508181036000830152610e7081610b2a565b9050919050565b60006020820190508181036000830152610e9081610b90565b9050919050565b60006020820190508181036000830152610eb081610bf6565b9050919050565b60006020820190508181036000830152610ed081610c5c565b9050919050565b60006020820190508181036000830152610ef081610cc2565b9050919050565b60006020820190508181036000830152610f1081610d28565b9050919050565b60006020820190508181036000830152610f3081610d68565b9050919050565b600082825260208201905092915050565b6000610f5382610fba565b9150610f5e83610fba565b925082821015610f7157610f70610fe8565b5b828203905092915050565b6000610f8782610f9a565b9050919050565b60008115159050919050565b600073ffffffffffffffffffffffffffffffffffffffff82169050919050565b6000819050919050565b6000610fcf82610fd6565b9050919050565b6000610fe182610f9a565b9050919050565b7f4e487b7100000000000000000000000000000000000000000000000000000000600052601160045260246000fd5b61102081610f7c565b811461102b57600080fd5b50565b61103781610f8e565b811461104257600080fd5b50565b61104e81610fba565b811461105957600080fd5b5056fea2646970667358221220c39af0689eab7ad321ab2f87ffd5e29c56b568bdeae423482f2bb1596896dfea64736f6c63430008000033",
  "immutableReferences": {},
  "source": "// SPDX-License-Identifier: MIT\r\n\r\npragma solidity ^0.8.0;\r\n\r\nimport {Context} from \"@openzeppelin/contracts/utils/Context.sol\";\r\nimport {Ownable} from \"@openzeppelin/contracts/access/Ownable.sol\";\r\nimport {IERC20} from \"@openzeppelin/contracts/token/ERC20/IERC20.sol\";\r\n\r\ncontract KnoxHiveVault is Context, Ownable {\r\n\r\n    IERC20 public _token;\r\n    mapping(address=>bool) _authorisedBeneficiaries;\r\n    mapping(address => uint256) _allowances;\r\n    mapping(address => uint256) _lastWithdrawAt;\r\n    uint256 private _timeInterval=600; // 30 days\r\n    uint256 private _startTime;\r\n\r\n    //constructor\r\n    constructor(IERC20 token) Ownable() {\r\n        _token = token;\r\n        _startTime = block.timestamp;\r\n    }\r\n\r\n    function allocateMonthlyFunds(uint256 amount, address beneficiary)external onlyOwner() returns (bool){\r\n        require(amount> 0, \"KnoxhiveVault: Allowance amount must be more than zero\");\r\n        require(address(0) != beneficiary, \"KnoxhiveVault: Beneficiary address cannot be zero address\");\r\n        _authorisedBeneficiaries[beneficiary] = true;\r\n        _allowances[beneficiary] = amount;\r\n        return true;\r\n    }\r\n\r\n    function withdrawAllocatedFunds(uint256 amount) external returns(bool){\r\n        require(_authorisedBeneficiaries[_msgSender()], \"KnoxhiveVault: You are not authorised to withdraw funds\");\r\n        require(_allowances[_msgSender()]>=amount,\"KnoxhiveVault: Requested amount is more then allowed amount\");\r\n\r\n        if(_lastWithdrawAt[_msgSender()] > 0){ //beneficiary has requested funds in past\r\n            require(block.timestamp - _lastWithdrawAt[_msgSender()] >=_timeInterval, \"KnoxhiveVault: Funds cannot be released at this moment.\");\r\n            _token.transfer(_msgSender(), amount);\r\n            _lastWithdrawAt[_msgSender()] = block.timestamp;\r\n            return true;\r\n        }else{  //beneficiary requesting funds for the first time\r\n            require(block.timestamp - _startTime >= _timeInterval, \"KnoxhiveVault: Funds cannot be released at this moment.\");\r\n            _token.transfer(_msgSender(), amount);\r\n            _lastWithdrawAt[_msgSender()] = block.timestamp;\r\n            return true;\r\n        }\r\n    }\r\n}\r\n",
  "sourcePath": "C:\\git\\knoxhive\\contracts\\KnoxHiveVault.sol",
  "compiler": {
    "name": "solc",
    "version": "0.8.0+commit.c7dfd78e.Emscripten.clang"
  },
  "schemaVersion": "3.4.3",
  "updatedAt": "2021-10-10T10:36:02.341Z",
  "networkType": "ethereum",
  "devdoc": {
    "kind": "dev",
    "methods": {
      "owner()": {
        "details": "Returns the address of the current owner."
      },
      "renounceOwnership()": {
        "details": "Leaves the contract without owner. It will not be possible to call `onlyOwner` functions anymore. Can only be called by the current owner. NOTE: Renouncing ownership will leave the contract without an owner, thereby removing any functionality that is only available to the owner."
      },
      "transferOwnership(address)": {
        "details": "Transfers ownership of the contract to a new account (`newOwner`). Can only be called by the current owner."
      }
    },
    "version": 1
  },
  "userdoc": {
    "kind": "user",
    "methods": {},
    "version": 1
  }
}